:020000040800F2
:10000000000002207D210008AD160008AF16000890
:10001000B1160008B3160008B5160008000000006D
:10002000000000000000000000000000B7160008FB
:10003000B916000800000000BB160008BD16000835
:10004000CD210008CD210008CD210008CD210008D8
:10005000CD210008CD210008CD210008CD210008C8
:10006000CD210008CD210008CD210008CD210008B8
:10007000CD210008CD210008CD210008CD210008A8
:10008000CD210008CD210008CD210008CD21000898
:10009000CD210008CD210008CD210008CD21000888
:1000A000CD210008CD210008CD210008CD21000878
:1000B000CD210008CD210008CD210008CD21000868
:1000C000CD210008CD210008CD210008CD21000858
:1000D000CD210008CD210008CD210008CD21000848
:1000E000CD210008CD210008CD210008CD21000838
:1000F000CD210008CD210008CD210008CD21000828
:10010000CD210008CD210008CD210008CD21000817
:10011000CD210008CD210008CD210008CD21000807
:10012000CD210008CD210008CD210008CD210008F7
:10013000CD2100080000000000000000CD210008D3
:10014000CD210008CD210008CD210008CD210008D7
:10015000CD210008CD210008CD210008CD210008C7
:10016000CD210008CD210008CD210008CD210008B7
:10017000CD210008CD210008CD210008000000009D
:1001800000000000CD210008000000000000000079
:10019000CD2100080000000000000000CD21000873
:1001A000000000000000000000000000CD21000859
:1001B000CD210008CD210008CD210008CD21000867
:0401C000CD21000845
:1001C40010B5054C237833B9044B13B10448AFF38D
:1001D40000800123237010BD1000002000000000E7
:1001E4002822000808B5034B1BB103490348AFF3A9
:1001F400008008BD00000000140000202822000830
:1002040081F0004102E000BF83F0004330B54FEAC3
:1002140041044FEA430594EA050F08BF90EA020F30
:100224001FBF54EA000C55EA020C7FEA645C7FEAC3
:10023400655C00F0E2804FEA5454D4EB5555B8BFE6
:100244006D420CDD2C4480EA020281EA030382EA57
:10025400000083EA010180EA020281EA0303362DE9
:1002640088BF30BD11F0004F4FEA01314FF4801CBC
:100274004CEA113102D0404261EB410113F0004FCE
:100284004FEA03334CEA133302D0524263EB430385
:1002940094EA050F00F0A780A4F10104D5F1200E23
:1002A4000DDB02FA0EFC22FA05F2801841F100017E
:1002B40003FA0EF2801843FA05F359410EE0A5F152
:1002C40020050EF1200E012A03FA0EFC28BF4CF083
:1002D400020C43FA05F3C01851EBE37101F0004539
:1002E40007D54FF0000EDCF1000C7EEB00006EEB46
:1002F4000101B1F5801F1BD3B1F5001F0CD34908D0
:100304005FEA30004FEA3C0C04F101044FEA445226
:1003140012F5800F80F09A80BCF1004F08BF5FEAAD
:10032400500C50F1000041EB045141EA050130BD8D
:100334005FEA4C0C404141EB0101013C28BFB1F59F
:10034400801FE9D291F0000F04BF01460020B1FAEA
:1003540081F308BF2033A3F10B03B3F120020CDABD
:100364000C3208DD02F1140CC2F10C0201FA0CF09B
:1003740021FA02F10CE002F11402D8BFC2F1200C00
:1003840001FA02F120FA0CFCDCBF41EA0C019040B6
:10039400E41AA2BF01EB0451294330BD6FEA0404FF
:1003A4001F3C1CDA0C340EDC04F11404C4F12002EA
:1003B40020FA04F001FA02F340EA030021FA04F3FC
:1003C40045EA030130BDC4F10C04C4F1200220FA53
:1003D40002F001FA04F340EA0300294630BD21FA91
:1003E40004F0294630BD94F0000F83F4801306BF57
:1003F40081F480110134013D4EE77FEA645C18BF4B
:100404007FEA655C29D094EA050F08BF90EA020FE1
:1004140005D054EA000C04BF1946104630BD91EAD9
:10042400030F1EBF0021002030BD5FEA545C05D1DC
:100434004000494128BF41F0004130BD14F580041B
:100444003CBF01F5801130BD01F0004545F0FE418F
:1004540041F470014FF0000030BD7FEA645C1ABFC4
:10046400194610467FEA655C1CBF0B46024650EAFB
:10047400013406BF52EA033591EA030F41F4002127
:1004840030BD00BF90F0000F04BF0021704730B5AD
:100494004FF4806404F132044FF000054FF0000182
:1004A40050E700BF90F0000F04BF0021704730B543
:1004B4004FF4806404F1320410F0004548BF404218
:1004C4004FF000013EE700BF42004FEAE2014FEA6D
:1004D40031014FEA02701FBF12F07F4393F07F4F48
:1004E40081F06051704732F07F4208BF704793F04B
:1004F4007F4F04BF41F40021704730B54FF460745E
:1005040001F0004521F000411CE700BF50EA010260
:1005140008BF704730B54FF000050AE050EA010209
:1005240008BF704730B511F0004502D5404261EB79
:1005340041014FF4806404F132045FEA915C3FF4BA
:10054400D8AE4FF003025FEADC0C18BF03325FEA57
:10055400DC0C18BF033202EBDC02C2F1200300FA08
:1005640003FC20FA02F001FA03FE40EA0E0021FA2D
:1005740002F11444BDE600BF70B54FF0FF0C4CF41B
:10058400E06C1CEA11541DBF1CEA135594EA0C0FCD
:1005940095EA0C0F00F0DEF82C4481EA030621EA08
:1005A4004C5123EA4C5350EA013518BF52EA033543
:1005B40041F4801143F4801338D0A0FB02CE4FF0F5
:1005C4000005E1FB02E506F00042E0FB03E54FF025
:1005D4000006E1FB03569CF0000F18BF4EF0010E1D
:1005E400A4F1FF04B6F5007F64F5407404D25FEA19
:1005F4004E0E6D4146EB060642EAC62141EA5551CC
:100604004FEAC52040EA5E504FEACE2EB4F1FD0C0D
:1006140088BFBCF5E06F1ED8BEF1004F08BF5FEA8B
:10062400500E50F1000041EB045170BD06F000463D
:1006340046EA010140EA020081EA0301B4EB5C04EA
:10064400C2BFD4EB0C0541EA045170BD41F48011E2
:100654004FF0000E013C00F3AB8014F1360FDEBF07
:10066400002001F0004170BDC4F10004203C35DAE3
:100674000C341BDC04F11404C4F1200500FA05F366
:1006840020FA04F001FA05F240EA020001F0004207
:1006940021F0004110EBD37021FA04F642EB06017D
:1006A4005EEA430E08BF20EAD37070BDC4F10C04A7
:1006B400C4F1200500FA04F320FA05F001FA04F26B
:1006C40040EA020001F0004110EBD37041F1000157
:1006D4005EEA430E08BF20EAD37070BDC4F1200562
:1006E40000FA05F24EEA020E20FA04F301FA05F2CA
:1006F40043EA020321FA04F001F0004121FA04F272
:1007040020EA020000EBD3705EEA430E08BF20EA41
:10071400D37070BD94F0000F0FD101F0004640007B
:1007240041EB010111F4801F08BF013CF7D041EAFD
:10073400060195F0000F18BF704703F00046520001
:1007440043EB030313F4801F08BF013DF7D043EAD2
:100754000603704794EA0C0F0CEA135518BF95EA88
:100764000C0F0CD050EA410618BF52EA4306D1D10F
:1007740081EA030101F000414FF0000070BD50EA2E
:10078400410606BF1046194652EA430619D094EAB8
:100794000C0F02D150EA013613D195EA0C0F05D1A2
:1007A40052EA03361CBF104619460AD181EA0301F6
:1007B40001F0004141F0FE4141F470014FF00000AE
:1007C40070BD41F0FE4141F4780170BD70B54FF049
:1007D400FF0C4CF4E06C1CEA11541DBF1CEA1355C9
:1007E40094EA0C0F95EA0C0F00F0A7F8A4EB0504AB
:1007F40081EA030E52EA03354FEA013100F08880A2
:100804004FEA03334FF0805545EA131343EA12636A
:100814004FEA022245EA111545EA10654FEA00261F
:100824000EF000419D4208BF964244F1FD0404F5D8
:10083400407402D25B084FEA3202B61A65EB030534
:100844005B084FEA32024FF480104FF4002CB6EBF1
:10085400020E75EB030E22BFB61A754640EA0C0071
:100864005B084FEA3202B6EB020E75EB030E22BFB1
:10087400B61A754640EA5C005B084FEA3202B6EBF2
:10088400020E75EB030E22BFB61A754640EA9C00B1
:100894005B084FEA3202B6EB020E75EB030E22BF81
:1008A400B61A754640EADC0055EA060E18D04FEA3F
:1008B400051545EA16754FEA06164FEAC30343EADF
:1008C40052734FEAC2025FEA1C1CC0D111F4801FAC
:1008D4000BD141EA00014FF000004FF0004CB6E7A5
:1008E40011F4801F04BF01430020B4F1FD0C88BF44
:1008F400BCF5E06F3FF6AFAEB5EB030C04BFB6EB4F
:10090400020C5FEA500C50F1000041EB045170BD41
:100914000EF0004E4EEA113114EB5C04C2BFD4EB6E
:100924000C0541EA045170BD41F480114FF0000EF2
:10093400013C90E645EA060E8DE60CEA135594EA6E
:100944000C0F08BF95EA0C0F3FF43BAF94EA0C0F71
:100954000AD150EA01347FF434AF95EA0C0F7FF4E6
:1009640025AF104619462CE795EA0C0F06D152EA3A
:1009740003353FF4FDAE1046194622E750EA41061E
:1009840018BF52EA43067FF4C5AE50EA41047FF42F
:100994000DAF52EA43057FF4EBAE12E74FF0FF3C94
:1009A40006E000BF4FF0010C02E000BF4FF0010C65
:1009B4004DF804CD4FEA410C7FEA6C5C4FEA430CDE
:1009C40018BF7FEA6C5C1BD001B050EA410C0CBF2D
:1009D40052EA430C91EA030F02BF90EA020F00208F
:1009E400704710F1000F91EA030F58BF994208BFF6
:1009F40090422CBFD8176FEAE37040F001007047B3
:100A04004FEA410C7FEA6C5C02D150EA013C07D109
:100A14004FEA430C7FEA6C5CD6D152EA033CD3D054
:100A24005DF8040B704700BF8446104662468C464E
:100A34001946634600E000BF01B5FFF7B7FF002881
:100A440048BF10F1000F01BD4DF808EDFFF7F4FFAA
:100A54000CBF012000205DF808FB00BF4DF808ED35
:100A6400FFF7EAFF34BF012000205DF808FB00BF58
:100A74004DF808EDFFF7E0FF94BF012000205DF87A
:100A840008FB00BF4DF808EDFFF7CEFF94BF01202F
:100A940000205DF808FB00BF4DF808EDFFF7C4FF28
:100AA40034BF012000205DF808FB00BF7BB972B998
:100AB4000029BEBF00204FF0004106E008BF002817
:100AC4001CBF6FF000414FF0FF3000F0D3B9ADF11F
:100AD400080C6DE904CE002909DB002B1ADB00F0B9
:100AE4004DF8DDF804E0DDE9022304B0704740422C
:100AF40061EB4101002B1BDB00F040F8DDF804E062
:100B0400DDE9022304B0404261EB4101524263EB50
:100B140043037047524263EB430300F02FF8DDF8C0
:100B240004E0DDE9022304B0404261EB4101704777
:100B3400524263EB430300F021F8DDF804E0DDE901
:100B4400022304B0524263EB4303704753B94AB9DA
:100B5400002908BF00281CBF4FF0FF314FF0FF30C1
:100B640000F088B9ADF1080C6DE904CE00F006F888
:100B7400DDF804E0DDE9022304B070472DE9F04715
:100B8400089D8E4604468846002B4AD18A42174661
:100B940062D9B2FA82F64EB1C6F1200301FA06F820
:100BA40020FA03F3B74043EA0808B4404FEA174E6B
:100BB4001FFA87FCB8FBFEF1230C0EFB118843EAF5
:100BC400084301FB0CF29A4209D9FB1801F1FF30EA
:100BD40080F0EA809A4240F2E78002393B449A1A54
:100BE400A3B2B2FBFEF00EFB102243EA024300FB69
:100BF4000CFC9C4509D9FB1800F1FF3280F0D6802B
:100C04009C4540F2D3803B44023840EA0140A3EBC8
:100C14000C0300211DB1F3400022C5E90032BDE8F8
:100C2400F0878B4205D90DB1C5E9000100210846C2
:100C3400F5E7B3FA83F1002946D1734502D3824222
:100C440000F20581841A6EEB030201209046002D08
:100C5400E5D0C5E90048E2E7002A00F09080B2FA46
:100C640082F6002E40F0A4808A1A030C4FEA174E35
:100C740080B2BCB20121B2FBFEFC0EFB1C2243EA93
:100C8400024304FB0CF29A4207D9FB180CF1FF381B
:100C940002D29A4200F2E080C4469B1AB3FBFEF2F1
:100CA4000EFB123340EA034302FB04F49C4207D9CF
:100CB400FB1802F1FF3002D29C4200F2CA800246C5
:100CC4001B1B42EA0C40A5E7C1F120068B4022FA27
:100CD40006F71F430EFA01F420FA06F32EFA06FE75
:100CE4004FEA1749234300FA01F81FFA87FCBEFBB9
:100CF400F9F01C0C09FB10EE44EA0E4400FB0CFE58
:100D0400A64502FA01F209D93C1900F1FF3A80F034
:100D14009C80A64540F2998002383C44A4EB0E0422
:100D24001FFA83FEB4FBF9F309FB13444EEA0444AF
:100D340003FB0CFCA44508D93C1903F1FF3E80F0E9
:100D44008280A4457FD9023B3C4443EA0040A4EBA3
:100D54000C04A0FB02EC64457346E14662D35FD009
:100D64005DB1B8EB030264EB090404FA06F622FA57
:100D740001F31E43CC40C5E9006400214FE7B1FBF9
:100D8400F2FC010C41EA0E4180B240EA01423B46CA
:100D940038463C46B846BE462026B1FBF7F1A2EBE6
:100DA400080241EA0C4166E7014618E710462CE7C1
:100DB400C6F120022EFA02F3B740B14020FA02F243
:100DC4004FEA174E0A43B3FBFEF8BCB20EFB1833CE
:100DD400110C41EA034108FB04F9B04089454FEA8C
:100DE400104380B23ED9791808F1FF3C01D28945FD
:100DF4001FD8A1EB0901B1FBFEF909FB04F80EFBB6
:100E0400191192B242EA0142424529D2BA1809F1B3
:100E1400FF31C4D24245C2D2A9F102013A44BEE72D
:100E2400F0459DD2BEEB02036CEB070C0138E146A2
:100E340096E7A7EB09094944A8F1020CB1FBFEF9B6
:100E440009FB04F8DBE773467FE7504666E708468C
:100E5400FDE63B44023A33E7ACF1020C3B441CE7A9
:100E640049469CE7A1EB0901C446B1FBFEF909FB25
:100E740004F8C4E7704700BF30B589B00024039478
:100E840004940594069407940094184B1A6B42F04A
:100E940004021A631A6B02F004020092009A01948D
:100EA4001A6B42F080021A631A6B02F080020192FC
:100EB400019A02941A6B42F002021A631B6B03F04C
:100EC40002030293029B0A4D2246FF21284601F0A9
:100ED40069F8FF230393012304930594069403A95B
:100EE400284600F06FFF09B030BD00BF0038024053
:100EF400000402402DE9F04F8DB005460B9103929A
:100F040000260696B24607968EE0A8EB000804FB7E
:100F140007F10AFB0B11A4FB0A054A4A00232944E2
:100F2400FFF7C4FD059B03EB000A049B03EB0804D5
:100F340009F10109039B994525DA4FEAE47B04FB97
:100F44000BF5A4FB0401404A002301EB4501FFF724
:100F5400ADFD8046029101904FEAEA770AFB07FC57
:100F6400AAFB0A01384A002301EB4C01FFF79EFD5E
:100F740043461B18029A42EB0101344A9A424FF04D
:100F840000038B41C1DADDF820B0099E0A9D069B5F
:100F940019EB03020692079B43EBE97307930136AF
:100FA400AE423FDAF7172A490024A6FB010C2A4671
:100FB400EB1701FB07C1FFF779FDA0F51813A3F5A3
:100FC4001653203B04934FEAEB714B0143EADB6376
:100FD4004FEA4B10B0EB0B0063EB0107BB0143EA94
:100FE40090638201121A63EB0703DB0043EA527336
:100FF400D20012EB0B0741EB0301C9010B9B1A460C
:10100400DB17F80141EA5761FFF750FDA0F57422A0
:10101400A2F51072A146A2460592CDF820B0099619
:101024000A9587E70BF1010A0B9B9A4502DA002621
:10103400D346B5E7DDF81CB0069859460DB0BDE8B7
:10104400F08F00BF20A1070040420F0000093D00BF
:10105400E06735002DE9F04F8FB007900C910D92A9
:101064004FF00008CDF82080CDF824808DE0524662
:101074005B46DDE90001FFF7C7F882468B4622464E
:101084002B4620462946FFF7C1F832463B46FFF778
:1010940073FADDE90423FFF7B9F806460F46524612
:1010A4005B46DDE90201FFF7B1F804460D4608F19D
:1010B4000108C8451BDA22462B4620462946FFF77D
:1010C4005BFACDE9000132463B4630463946FFF72C
:1010D40053FA82468B4602460B46DDE90001FFF7D0
:1010E40095F80022314BFFF7C3FC0028BFD1DDF88F
:1010F4002890089B18EB03020892099B43EBE873C2
:10110400099309F10109079B99453ADA4846FFF723
:10111400C9F904460D460798FFF7C4F902460B4681
:1011240020462946FFF752FB0022214BFFF724FA01
:101134000022204BFFF768F8CDE902010B98FFF776
:10114400B1F904460D460C98FFF7ACF902460B467C
:1011540020462946FFF73AFB02460B46FFF756F8AE
:101164000022154BFFF750F8CDE904014FF00008B9
:101174000026002734463D46CDF82890DDF834900B
:1011840097E7DDF82C8008F101080C9B984505DAF7
:101194004FF0000ACDF82C80D146B4E7DDF8249056
:1011A400089849460FB0BDE8F08F00BF000010401A
:1011B40000000C40000004400000F03F074AD2F851
:1011C400FC3043F08073C2F8FC30054B00225A60B7
:1011D4001A6842F001021A60704700BF00ED00E097
:1011E400001000E02DE9F04F2DED028B89B00024B2
:1011F400404B1C6028E0DFED407AADF80080ADF88C
:10120400027001956427ADF808708DED048B069685
:10121400CDED077A394B03EB441CEE46BEE80F00D4
:10122400ACE80F009EE80F008CE80F00344B83ED10
:10123400008B344B1D60344B1E60344BC3ED007A7D
:10124400384600F07BFF0134042C48D84FF0640B7F
:101254002F4BA3F800B02F4B33F8248003EB840307
:101264005F8807FB08F92C4BA3F800802B4B1F80E9
:1012740010212B4800F09CFE2A4D00236B606B6804
:10128400294E336000F054FFDFF8ACA0CAF8000028
:101294005A4639464046FFF72DFE08EE100A08EE7E
:1012A400901A00F045FF214B18606968204A1160CC
:1012B4001D68DAF80030116836688E1BED1A9AD072
:1012C40007EE909AB8EE677A07EE905AB8EE676A1E
:1012D400DFED187AC6EE276AC7EE267A8DE700227C
:1012E40018210F4800F05EFE09B0BDEC028BBDE88A
:1012F400F08F00BF300000200000000080000020BC
:101304003800002034000020640000206000002029
:1013140068000020402200086C0000206A000020C1
:1013240000040240001000E0740000207800002057
:101334007000002000007A447C00002072B6FEE7B2
:1013440000B595B03422002107A800F03EFF002329
:10135400029303930493059306930093214A116C1B
:1013640041F080511164126C02F080520092009A94
:1013740001931D4A136823F4404343F480431360EC
:10138400136803F440430193019B012307934FF433
:101394008033089302230D934FF480020E920F22A0
:1013A4000F929022109211931293139307A800F0B6
:1013B400E7FA98B90F2302930223039300230493BB
:1013C4004FF4A05305934FF480530693032102A8CE
:1013D40000F092F920B915B05DF804FBFFF7AEFFF9
:1013E400FFF7ACFF00380240007000402DE9F84FD1
:1013F40000F078FEFFF7A4FFFFF73EFDFFF7DEFEE7
:101404008BE0964B33F82420954E328003EB840313
:101414005B88944D2B8000F08BFEDFF88082C8F847
:10142400000030882988642289B280B2FFF762FD07
:101434008D4FC7E9000100F07BFEDFF85492C9F834
:101444000000D9F80030D8F800209B1A87490B60B7
:10145400328892B286484FEA041A00EB041320F84B
:101464000A202A8892B25A800A685A60D7E9000191
:10147400C3E902017F4F3B6801333B6000F058FE33
:10148400C8F8000030882988642289B280B2FFF746
:10149400E1FDDFF80CB2CBE9000100F049FEC9F828
:1014A4000000D9F80030D8F800209B1A72490B606C
:1014B400328892B2714800EB0A0320F80A202A8885
:1014C40092B25A800A685A60DBE90001C3E902015A
:1014D4003B6801333B600134042C92DD684C0122EB
:1014E4000221204600F05EFD4FF4FA6000F026FE73
:1014F40000220121204600F055FD00220221204651
:1015040000F050FD5F4B01221A7004215C4800F08A
:101514004FFD4FF47A7000F011FE5A4B1B7833B133
:1015240001221146564800F03DFD0024D4E7564BF5
:101534001B78EBB9554B1B78002BE6D1504C01229C
:101544001146204600F02EFDFFF74CFE0122022139
:10155400204600F027FD4FF4FA6000F0EFFD002272
:101564000321204600F01EFD484B01221A70CCE7EF
:1015740001220421424800F015FD4FF0000A4AE020
:10158400364B33F82420DFF8D8B0ABF8002003EB57
:1015940084035B88334D2B8000F0CAFDDFF8FC80A8
:1015A400C8F80000BBF800002988DFF8EC90B9F80F
:1015B400002092B289B280B2FFF79CFC06460F4627
:1015C40000F0B6FD32490860BBF8000080B2DFF8D5
:1015D400D4C004EB4402CAEB0A13DB0003EBC203DE
:1015E4000CEB03022CF803002B889BB25380B9F850
:1015F40000309BB213810B68D8F800105B1A53605B
:10160400C2E904671B4A1368013313600134042CD4
:10161400B6DD0AF1010ABAF1040F06DC1D4B33F8FA
:101624001A201D4B1A800024F1E7154C01220821D1
:10163400204600F0B7FC4FF4FA6000F07FFD002272
:101644000421204600F0AEFC00220821204600F0D0
:10165400A9FC0D4B01221A7057E700BF4022000875
:101664006C0000206A000020580000205000002078
:10167400C803002030000020400000207803002030
:10168400000402402D0000202C0000202E00002029
:101694007800002054220008680000207C0000200C
:1016A4004800002020010020FEE7FEE7FEE7FEE7F9
:1016B400FEE770477047704708B500F02DFD08BD80
:1016C40082B0002100910B4B5A6C42F480425A6460
:1016D4005A6C02F480420092009A01911A6C42F012
:1016E40080521A641B6C03F080530193019B02B077
:1016F400704700BF00380240002800F09B8070B59E
:101704000D4604464F4B1B6803F00F038B4208D26F
:10171400CBB24C4A1370136803F00F038B4240F0B2
:101724008B80236813F0020F17D013F0040F04D03A
:10173400454A936843F4E0539360236813F0080F19
:1017440004D0414A936843F4604393603E4A9368EB
:1017540023F0F003A1680B439360236813F0010F97
:1017640032D06368012B21D09A1E012A25D9364A2A
:10177400126812F0020F61D033498A6822F0030222
:1017840013438B6000F0D4FC06462F4B9B6803F098
:101794000C036268B3EB820F16D000F0C9FC801B07
:1017A40041F288339842F0D9032042E0264A126875
:1017B40012F4003FE0D101203BE0234A126812F00A
:1017C400007FD9D1012034E01E4B1B6803F00F03C6
:1017D400AB4207D9EAB21B4B1A701B6803F00F0324
:1017E400AB422DD1236813F0040F06D0164A936838
:1017F40023F4E053E1680B439360236813F0080F6C
:1018040007D0114A936823F46043216943EAC10372
:10181400936000F021F80C4B9B68C3F303130B4A4D
:10182400D35CD8400A4B18600A4B186800F034FCAB
:10183400002070BD012070470120FAE70120F8E77D
:101844000120F6E7003C0240003802406022000814
:10185400080000200400002008B5464B9B6803F0F4
:101864000C03082B05D00C2B43D0042B7FD142480A
:1018740019E0404B5A6802F03F025B6813F4800F92
:1018840012D03C4B5968C1F388113B480023A1FB9B
:101894000001FFF75BF9374B5B68C3F30143013386
:1018A4005B00B0FBF3F008BD324B5868C0F38810FE
:1018B4004FEA401CBCEB000C6EEB0E0E4FEA8E138D
:1018C40043EA9C634FEA8C11B1EB0C0163EB0E030A
:1018D400DB0043EA5173C90011EB000C43F1000330
:1018E400990200234FEA8C2041EA9C51FFF72EF91C
:1018F400D1E7204B5A6802F03F025B6813F4800F73
:1019040010D01C4B5968C1F388111B480023A1FB5C
:101914000001FFF71BF9174B5B68C3F30273B0FBBD
:10192400F3F0C0E7134B5868C0F388104FEA401C2B
:10193400BCEB000C6EEB0E0E4FEA8E1343EA9C6375
:101944004FEA8C11B1EB0C0163EB0E03DB0043EAAD
:101954005173C90011EB000C43F1000399020023F9
:101964004FEA8C2041EA9C51FFF7F0F8D3E7034893
:1019740099E700BF0038024040787D010024F4005C
:10198400002800F0018270B582B00446036813F0A9
:10199400010F41D0994B9B6803F00C03042B32D008
:1019A400964B9B6803F00C03082B27D0934B9B6842
:1019B40003F00C030C2B59D06368B3F5803F5BD064
:1019C400B3F5A02F5ED08D4B1A6822F480321A60D2
:1019D4001A6822F480221A606368002B5CD000F03D
:1019E400A7FB0546854B1B6813F4003F14D100F098
:1019F4009FFB401B6428F5D90320CCE17F4B5B6837
:101A040013F4800FD2D07D4B1B6813F4003F03D036
:101A14006368002B00F0BA81236813F0020F60D0D2
:101A2400764B9B6813F00C0F4AD0744B9B6803F001
:101A34000C03082B3FD0714B9B6803F00C030C2B59
:101A440069D0E368002B75D06D4B01221A6000F059
:101A54006FFB0546694B1B6813F0020F61D100F060
:101A640067FB401B0228F5D9032094E1634B5B68B4
:101A740013F4800FA0D0C6E7604A136843F48033A0
:101A84001360A9E75D4B1A6842F480221A601A6851
:101A940042F480321A609FE700F04AFB0546574B38
:101AA4001B6813F4003FB7D000F042FB401B6428CE
:101AB400F5D903206FE1514B5B6813F4800FBAD161
:101AC4004E4B1B6813F0020F03D0E368012B40F068
:101AD4005F814A4A136823F0F803216943EAC1038A
:101AE4001360236813F0080F49D06369002B33D0C7
:101AF400434B0122C3F8802E00F01AFB05463F4BEE
:101B04005B6F13F0020F3AD100F012FB401B022866
:101B1400F5D903203FE1394B5B6813F4800F90D172
:101B2400CEE7364A136823F0F803216943EAC10378
:101B34001360D6E7324B00221A6000F0F9FA05462A
:101B44002E4B1B6813F0020FCBD000F0F1FA401BB0
:101B54000228F5D903201EE1294B0022C3F8802E68
:101B640000F0E6FA0546254B5B6F13F0020F06D032
:101B740000F0DEFA401B0228F5D903200BE12368AC
:101B840013F0040F76D01D4B1B6C13F0805F33D120
:101B940000230193194B1A6C42F080521A641B6C97
:101BA40003F080530193019B0125164B1B6813F42A
:101BB400807F29D0A368012B3AD0052B3ED00F4B50
:101BC4001A6F22F001021A671A6F22F004021A67D0
:101BD400A368002B3CD000F0ABFA0646074B1B6F02
:101BE40013F0020F45D100F0A3FA801B41F28833B1
:101BF4009842F3D90320CEE00025D6E7003802400E
:101C040000004742007000406B4A136843F480733D
:101C1400136000F08DFA0646674B1B6813F4807F4F
:101C2400C8D100F085FA801B0228F5D90320B2E060
:101C3400624A136F43F001031367C9E75F4B1A6FDE
:101C440042F004021A671A6F42F001021A67BFE7F2
:101C540000F06EFA0646594B1B6F13F0020F08D0C2
:101C640000F066FA801B41F288339842F3D90320CE
:101C740091E0EDB9A369002B00F08C804F4A926883
:101C840002F00C02082A54D0022B17D04C4B00222D
:101C94001A6600F04DFA0446484B1B6813F0007FA7
:101CA40045D000F045FA001B0228F5D9032072E064
:101CB400424A136C23F080531364DBE7404B002249
:101CC4001A6600F035FA05463C4B1B6813F0007F9A
:101CD40006D000F02DFA401B0228F5D903205AE063
:101CE400E369226A1343626A43EA8213A26A5208CE
:101CF400013A43EA0243E26A43EA0263226B43EA9B
:101D040002732E4A53602E4B01221A6600F010FA19
:101D140004462A4B1B6813F0007F06D100F008FA32
:101D2400001B0228F5D9032035E0002033E0002011
:101D340031E0012B31D0214B5B6803F48001E2696F
:101D440091422CD103F03F02216A8A4229D1616A6F
:101D540047F6C0721A40B2EB811F24D103F440311C
:101D6400A26A5208013AB1EB024F1ED103F070622D
:101D7400E16AB2EB016F1AD103F0E043226BB3EBDB
:101D8400027F16D1002006E001207047012002E006
:101D9400012000E0002002B070BD0120FBE701201B
:101DA400F9E70120F7E70120F5E70120F3E7012037
:101DB400F1E70120EFE700BF007000400038024067
:101DC4000000474200230F2B00F2E38070B582B07D
:101DD40065E085684FEA430E032404FA0EF425EA0D
:101DE4000405CC6804FA0EF42C438460446824EAA5
:101DF40002044A68C2F300129A40224342605CE043
:101E0400DC08083450F8242003F00705AD004FF037
:101E14000F0E0EFA05FE22EA0E0E0A69AA4042EAE5
:101E24000E0240F824205CE0062200E0002202FAC0
:101E34000EF22A430234574D45F82420564A94683A
:101E44006FEA0C0224EA0C054E6816F4801F01D0D8
:101E54004CEA0405504CA560E46802EA04054E68A7
:101E640016F4001F01D04CEA04054B4CE56064688D
:101E740002EA04054E6816F4003F01D04CEA04055A
:101E8400454C6560246822404D6815F4803F01D0BC
:101E94004CEA0402404C226001330F2B77D8012214
:101EA4009A400C6804EA020C32EA0404F4D14C6847
:101EB40004F00304013C012C8BD94A6802F00302AC
:101EC400032A09D0C4685D000322AA4024EA02045C
:101ED4008A68AA402243C2604A6802F00302022AC6
:101EE4008ED004684FEA430E032202FA0EF224EA6B
:101EF40002044A6802F0030202FA0EF2224302606C
:101F04004A6812F4403FC7D000220192234A546C1D
:101F140044F480445464526C02F480420192019A65
:101F24009C08A51C1B4A52F8255003F0030E4FEAE7
:101F34008E0E0F2202FA0EF225EA0205184A90428A
:101F44003FF474AF02F58062904216D002F58062CD
:101F5400904214D002F58062904212D002F5806261
:101F6400904210D002F5806290420ED002F5806259
:101F740090423FF459AF072259E7012257E7022262
:101F840055E7032253E7042251E705224FE702B045
:101F940070BD704700380140003C014000380240E9
:101FA400000002400AB181617047090481617047F1
:101FB400436901EA030221EA030141EA0241816122
:101FC40070470000002808DB0901C9B200F1604035
:101FD40000F5614080F80013704700F00F0009011C
:101FE400C9B2014B1954704714ED00E000B500F07C
:101FF4000700C0F1070CBCF1040F28BF4FF0040C1C
:10200400031D062B0FD9C31E4FF0FF3E0EFA0CF032
:1020140021EA000199400EFA03FE22EA0E0241EA87
:1020240002005DF804FB0023EEE70000074AD368D2
:1020340023F4E0631B041B0C000200F4E060034380
:1020440043F0BF6343F40033D360704700ED00E016
:1020540010B50446054BD868C0F30220FFF7C6FF4D
:1020640001462046FFF7AEFF10BD00BF00ED00E0C3
:102074000138B0F1807F0BD24FF0E0235861054A5C
:10208400F02182F823100020986107221A6170471A
:102094000120704700ED00E010B504460E4B1A789D
:1020A4004FF47A73B3FBF2F30C4A1068B0FBF3F00D
:1020B400FFF7DEFF68B90F2C01D901200AE00022E6
:1020C40021464FF0FF30FFF7C3FF054B1C60002093
:1020D40000E0012010BD00BF000000200800002027
:1020E4000400002008B50B4B1A6842F400721A6011
:1020F4001A6842F480621A601A6842F480721A60A4
:102104000320FFF793FF0F20FFF7C6FFFFF7D8FA6E
:10211400002008BD003C0240034A1168034B1B78B1
:102124000B441360704700BF180400200000002017
:10213400014B1868704700BF1804002038B50446E6
:10214400FFF7F6FF0546B4F1FF3F02D0044B1B78BE
:102154001C44FFF7EDFF401BA042FAD338BD00BF7B
:1021640000000020034AD2F8883043F47003C2F818
:102174008830704700ED00E0DFF834D0FFF7F2FF5D
:102184000C480D490D4A002302E0D458C4500433CE
:10219400C4188C42F9D30A4A0A4C002301E01360A4
:1021A4000432A242FBD300F019F8FFF71FF970477D
:1021B40000000220000000200C0000208022000803
:1021C400100000201C040020FEE702440346934252
:1021D40000D1704703F8011BF9E7000070B50D4DFD
:1021E4000D4C641BA4100026A64209D10B4D0C4CC7
:1021F40000F018F8641BA4100026A64205D170BD97
:1022040055F8043B98470136EEE755F8043B9847E8
:102214000136F2E7782200087822000878220008C4
:102224007C220008F8B500BFF8BC08BC9E46704785
:0C223400F8B500BFF8BC08BC9E4670471F
:1022400080008000A000A000C000C000E000E0000E
:10225000000100016400FA00F401EE02E80300004E
:102260000000000000000000010203040607080946
:0822700010E9FF7F01000000EE
:04227800E901000870
:04227C00C501000890
:0C22800001000000100000000024F40029
:040000050800217D51
:00000001FF
