:020000040800F2
:1000000000200020FD280008911F0008931F000811
:1000100000000000000000000000000000000000E0
:10002000000000000000000000000000951F000814
:100030000000000000000000971F0008991F000842
:100040004D2900084D2900084D2900084D290008B8
:100050004D2900084D2900084D2900084D290008A8
:100060004D2900084D2900084D2900084D29000898
:100070004D2900084D2900084D2900084D29000888
:100080004D2900084D290008000000004D290008F6
:100090004D2900084D2900084D2900084D29000868
:1000A0004D2900084D2900084D2900084D29000858
:1000B0004D290008000000004D2900080000000044
:1000C00010B5064C2378002B07D1054B002B02D02E
:1000D000044800E000BF0123237010BD1000002081
:1000E00000000000BC290008044B10B5002B03D011
:1000F0000349044800E000BF10BDC04600000000F6
:1001000014000020BC290008002243088B4274D34D
:1001100003098B425FD3030A8B4244D3030B8B4208
:1001200028D3030C8B420DD3FF22090212BA030C11
:100130008B4202D31212090265D0030B8B4219D3F2
:1001400000E0090AC30B8B4201D3CB03C01A524112
:10015000830B8B4201D38B03C01A5241430B8B425A
:1001600001D34B03C01A5241030B8B4201D30B0343
:10017000C01A5241C30A8B4201D3CB02C01A52416A
:10018000830A8B4201D38B02C01A5241430A8B422D
:1001900001D34B02C01A5241030A8B4201D30B0216
:1001A000C01A5241CDD2C3098B4201D3CB01C01A30
:1001B000524183098B4201D38B01C01A524143093A
:1001C0008B4201D34B01C01A524103098B4201D328
:1001D0000B01C01A5241C3088B4201D3CB00C01A95
:1001E000524183088B4201D38B00C01A524143080D
:1001F0008B4201D34B00C01A5241411A00D2014632
:10020000524110467047FFE701B5002000F006F8A4
:1002100002BDC0460029F7D076E770477047C04658
:10022000844608006146FFE71FB500F039FB00284F
:1002300001D40021C8421FBD10B500F0C1FA4042F0
:10024000013010BD10B500F02BFB002801DB0020B1
:1002500010BD012010BDC04610B500F021FB0028E4
:1002600001DD002010BD012010BDC04610B500F01A
:10027000CFFA002801DC002010BD012010BDC046CF
:1002800010B500F0C5FA002801DA002010BD0120E9
:1002900010BDC046002B15D1002A13D1002906DB62
:1002A00001DC002806D00020C043410802E0802184
:1002B0000906002007B4024801A14018029003BDBE
:1002C0005DFFFFFF03B4684601B5029800F044F9F2
:1002D000019B9E4602B00CBC7047C046002B11D15A
:1002E000002A0FD1002900D1002802D00021C943E3
:1002F000080007B4024802A14018029003BDC0469E
:100300001DFFFFFF03B4684601B5029800F058F8DE
:10031000019B9E4602B00CBC7047C046F0B5CE466D
:100320009946030C9C46130447461B0C1D000E0007
:1003300061460404240C80B50700100C4B43654350
:10034000414360432C0CC01824188C46A34203D9A7
:1003500080235B029846C444494679435643230CA4
:100360002D042D0C8919634424046019C918C0BCDC
:10037000B946B046F0BDC0468023D0B59B0304000B
:100380000800994201D3630511D101F0C3F900229D
:100390000A4B00F0D9FE06000F00200001F0BAF968
:1003A00032003B0000F00AFB01F0D8F9D0BDE30AAF
:1003B0008024DB0224011C43E7E7C0460000F04133
:1003C000F0B557464E464546DE46E0B504000D0002
:1003D0009246994683B08B4230D82DD0494650463C
:1003E00001F05CFA29000600200001F057FA331AE8
:1003F0009846203B34D49B4653465A469340424647
:100400001F00534693401E00AF423BD8AF4200D17D
:1004100079E05B46A41BBD41002B00DA76E00022A8
:1004200000230092019301235A4693400193012334
:1004300042469340009329E08242CFD90022002314
:10044000009201930C9B002B01D01C605D60009812
:10045000019903B0F0BCBB46B246A946A046F0BD28
:1004600042469B4620239B1A5246DA4041461300DF
:100470004A468A40170042461F43534693401E0097
:10048000AF42C3D900220023009201934346002BC0
:10049000D8D0FB0772081A4346467B080EE0AB42F1
:1004A00001D1A2420CD8A41A9D41012024196D410A
:1004B0000021013E24184D41002E06D0AB42EED95A
:1004C000013E24196D41002EF8D1009801995B4638
:1004D00000196941002B24DB2B005A464446D340C7
:1004E0002A00E2401C005B461500002B2ADB260098
:1004F0009E40330026004746BE403200801A994194
:10050000009001919EE7A342BCD882E74246202397
:1005100000219B1A0022009101920122DA400192EF
:1005200085E7424620239B1A2A0046469A4023002C
:10053000F340444613432A00E2401C005B4615008A
:10054000002BD4DA42462F002023260097409B1A26
:10055000DE403B003343CDE7F8B5CE46474680B595
:100560009146984604000D0001F0A4F907000E0022
:1005700002000B0048464146FFF7D0FE241A8D4189
:10058000089B380031001C605D60C0BCB946B046B5
:10059000F8BDC046F0B546464F46D6464502C0B502
:1005A000C30F470098460E1C6D0A3F0E5BD0FF2F0D
:1005B00021D08023ED00DB041D43002399469A4699
:1005C0007F3F74027300640A1B0EF60F002B20D0CD
:1005D000FF2B43D080220020E400D20414437F3B51
:1005E0004246FF1A4B4672400F2B00D99DE07149DD
:1005F0009B00CB589F46002D5AD108239946063BB5
:1006000074029A467300FF27640A1B0EF60F002B34
:10061000DED1002C3BD101234246494672401943AA
:100620000E2918D86448890041588F465346022B3A
:1006300000D1B8E0032B6ED042462C00012B40D1F4
:1006400000200024C0052043D2071043E0BCBA4676
:10065000B146A846F0BDFF200024F3E7002C20D1CE
:100660000223FF3FD8E7002D05D104239946033B21
:1006700000279A46A5E7280001F0F2F87627431FE5
:100680009D4000237F4299469A463F1A99E72000F1
:1006900001F0E6F8431F9C4076235B421B1A0020C2
:1006A0009EE703234A461A4391460320FC3397E70B
:1006B0000C239946093BFF279A4682E703282CD052
:1006C000320038007F30002847DD630704D00F2355
:1006D0002340042B00D00434230103D53800374BCA
:1006E00080301C40FE28B6DCA401640AC0B2A9E731
:1006F00080240022FF20E403A4E78023DB031D42C3
:1007000001D01C420BD08024E4032C4364024246F7
:10071000FF20640A96E746462C008023DB031C4337
:1007200064023200FF20640A8CE76D01600185429B
:100730002DD21B230024013F0126290064006D00F7
:10074000002901DB854201D32D1A3443013B002BE4
:10075000F3D16B1E9D412C43B3E701231B1A1B2BC6
:1007600000DD6DE721009E37D940BC400B00611EC3
:100770008C412343590704D00F211940042900D08C
:100780000433590113D49B0100205C0A5AE71A2351
:1007900001242D1AD0E7981E4342584140423200AE
:1007A0000024C0B24EE74246FF2000244AE7012061
:1007B000002447E7D4290008142A0008FFFFFFF7A8
:1007C00070B542004E024C0045026D0A120EC30F76
:1007D000760A240EC90FFF2A10D0FF2C0CD001205E
:1007E000A2420AD1B54208D18B420FD0002A04D1CF
:1007F0002800431E984100E0012070BD0120FF2C1D
:10080000FBD13543F9D14B401800F6E70020F4E75F
:1008100030B5420044024D02C30F4800640A120E74
:100820006D0A000EC90FFF2A18D0FF280AD0002A2F
:100830001ED100280AD1002D29D0002C2DD148002E
:10084000013830BD002D25D1002A01D1002CF6D071
:100850008B4219D001205B421843F2E7002C19D1DA
:10086000FF28F7D1002D15D100208B42F2D1E8E707
:100870000028EFD08B42EDD18242EBDC04DBAC42AE
:10088000E8D80020AC42DCD258000138D9E7002C6F
:10089000D7D0DFE702204042D3E78B42DAD1EEE740
:1008A00030B5420044024D02C30F4800640A120EE4
:1008B0006D0A000EC90FFF2A17D0FF280AD0002AA0
:1008C0001BD100280AD1002D1DD0002C2DD14800AD
:1008D000013811E0002D0ED1002A01D1002CF6D0F4
:1008E0008B420CD15800013806E0002C03D1FF28C0
:1008F00005D1002D15D0022030BD002806D10120E1
:100900005B421843F8E7002CF6D0F8E78B42F6D1AB
:100910008242F4DCE6DBAC42F1D80020AC42EBD200
:10092000E0E700208B42EAD1E6E78B42E7D1F2E72D
:1009300010B5041E0DD000F093FF9E231B1A962BBA
:100940000CDC082834D0083884406402640AD8B229
:1009500001E000200024C005204310BD992B13DCCA
:10096000421F9440144A224061071CD00F212140AD
:10097000042918D00432D408520115D59F236402EB
:10098000181A640AC0B2E6E7020021001B32914047
:100990000A00511E8A410521091ACC401443064A17
:1009A00022406107E2D1D4086402640AD8B2D2E7D7
:1009B0006402640A8E30CEE7FFFFFFFBF0B54F46BE
:1009C0004646D646C0B582B0009001910E034C0059
:1009D000CD0F710A009E5F00760F0E4300990092C2
:1009E0000193C900894619037B0D9846019B490A6A
:1009F000DB0F9C46009B009A5B0F0B434146640D46
:100A0000D200611A654500D1A6E0002972DD474693
:100A1000002F00D1DDE0CC4FBC4200D19AE101278C
:100A2000382917DC80273F043B431F2900DDDDE127
:100A30002027781A1F008740BA461700CF40844607
:100A400038005746074360468240CB40501E8241E3
:100A5000F61A17434B46DF1BB94580414042361A10
:100A6000330200D4FFE07602760A002E00D13CE18A
:100A7000300000F0F5FE0300083B20213800CA1AC0
:100A8000D0409E4002009F4032439C4200DDA6E1E0
:100A9000181B0130091A3E008F40C6407B1E9F4143
:100AA00013008B4037431F43C2403B001600002415
:100AB000134300D1DFE17B0700D132E30F233A007B
:100AC0003B40042B04D03A1DBA42BF417F42F61985
:100AD000330200D423E39C4B01349C4200D1B4E0A8
:100AE0009A4B64051E40640D7707D20876021743BF
:100AF000360BACE0002900D17EE04146091B002CFA
:100B000000D060E134004846044300D1C9E14C1EE6
:100B1000012900D12EE28C4DA94200D124E2012707
:100B2000382C11DC21001F2900DD0BE220243700C6
:100B30004846641AA740C84007434846A040CE40F4
:100B4000441EA0419B1B0743D71BBA42924152420D
:100B5000654644469E1A83E7002900DC9CE0474630
:100B6000002F67D11F00174300D1E4E0481E012980
:100B700000D19BE1744FB94200D1EBE001270100A5
:100B8000382811DC1F2900DDC7E12027781A1F0053
:100B9000844687401000C840074360468240CB40EF
:100BA000501E8241F61817434F444F458041404242
:100BB0003618330257D5644B01349C4245D001218D
:100BC000624B7A081E4039400A43F70717437608FC
:100BD00071E71F00174300D1ADE04F1EBC4601294D
:100BE00000D182E1584FB94200D190E1614601271E
:100BF000382900DD2EE718E7554F611C394200D037
:100C0000D0E0310048461F0001431743002C00D0BC
:100C10003DE1002900D1BCE1002F00D0BFE14B46EF
:100C20000021D80877070743F00806034C05360B68
:100C3000640D0CE0444FBC4200D18BE00127382901
:100C4000B2DC80273F043B439CE7002600272405B5
:100C50003443ED072C433800210002B0E0BCBA4613
:100C6000B146A846F0BD7B0704D00F233B40042BC0
:100C700000D028E7F808344B77070743F0089C4278
:100C800000D04AE23B00034359D080263603064396
:100C900036032D4C360BDAE7002961D04146091B9B
:100CA000002C00D1B9E0284CA04500D1A5E10127D6
:100CB000382913DC8024240426431F2900DDC8E1E1
:100CC000202437004846641AA740C84007434846D6
:100CD000A040CE40441EA0419B190743BF18974235
:100CE000924152424446D61863E7380000F0B8FDFE
:100CF000030018331F2B00DCBFE63A00083882409F
:100D00009C4200DD83E01B1B581C1F2800DCB4E163
:100D100017001F3BDF40202805D040231B1A9A40B4
:100D2000531E9A4117430024002F0AD07B0700D09E
:100D3000C4E626009EE74B460C00D8089BE7002738
:100D4000014C002683E7C046FF070000FFFF7FFF3E
:100D5000FE0700004B467707D8080743F00891E7E5
:100D6000CD4F611C39426BD1310048460143002C04
:100D700000D04BE11F001743002900D181E1002F73
:100D800000D14CE74A444A458041F61840423618A3
:100D9000330200D5B0E117009146374300D03EE75B
:100DA000002654E74946891A8846C145BF41F11AD1
:100DB0007F42C91B0F0261D447460F4300D1BDE0FB
:100DC0000E00474651E6B54CA04500D100E1012791
:100DD000382900DDB8E6802424042643A3E6B04E7B
:100DE000E41A16407B0700D03FE743E70F001800E6
:100DF000203FF8408446202903D04027791A8B40B1
:100E00001A43531E9A41634617001F4322E6A44823
:100E1000E11A10404707C00807E73400484604437A
:100E200000D1FAE04C1E012900D1D7E09B4FB94216
:100E300000D1E2E00127382C00DD4FE721003CE73C
:100E4000964CA14200D1DDE04A444A458041F31866
:100E500040421818C707520817434608520705D0E2
:100E60000F220C003A40042A00D02CE67607FF0837
:100E700037430009D9E600270026E8E64946571A15
:100E8000BA4292419E1B52426546B61AEDE50029D0
:100E900000D0C6E0002F67D1802600257F4C3603A6
:100EA000D5E665460C001E00D008E4E64A444A45F3
:100EB0008041F318404218181100030200D496E054
:100EC000774B49081840C3070B434408490700D132
:100ED00029E10F221A40042A00D1EAE01F1D9F4297
:100EE000B641764236190224C4E649468F1AB945FE
:100EF0008041F61A4042361A330206D47307FF08BF
:100F000001211F43F00890E665460124ABE54B46FE
:100F10007707D8080743F008B4E60F001800203F11
:100F2000F8408446202903D04027791A8B401A4381
:100F3000531E9A41634617001F4335E600250024DF
:100F4000002684E60C003500203CE540202905D031
:100F50004024611A8E404946314389464846411E25
:100F6000884107002F43EFE5D2085F076546174326
:100F7000D80887E6171ABA4292419E1B5242B61A07
:100F80003302C1D47307FF08654601211F43F008EF
:100F90004BE6002F7BD065461E0091463FE6811A46
:100FA0008846C145A441F11A6442091B80242404E7
:100FB000214277D0101A8242924107009E1B524272
:100FC000B61A374300D0A0E06546002400263EE66E
:100FD0005F07D20865461743D80853E68118914247
:100FE0009241F01852428018030200D568E7470783
:100FF000C9080F43C008012117E6D2085F0717434D
:10100000D8083FE60C000026002720E6002956D12C
:101010005F07D2081743D80834E60C001E00D0083A
:1010200029E6C10870070143F008002F62D0802430
:101030002403204207D0DE08264204D16546300052
:10104000D1085B0719434F0FC900C9087F070F4339
:1010500018E60C003000203CE0408446202905D0F2
:101060004024611A8E404946314389464846411E14
:101070008841614607000F4330E620210027091A06
:101080000EE51E00002F00D022E5002458E70025C1
:1010900000240026DBE5C046FE070000FF07000035
:1010A000FFFF7FFF47460F4300D147E70E00C146D1
:1010B000B5E5DF086407022127430009B5E51900FB
:1010C000C008770707431143F008002900D1D9E58C
:1010D00080210903084207D0DC080C4204D1D20861
:1010E0005B071A43170020007B0FFF00FF085B0718
:1010F0001F43C7E50F00C5E5124BD20833405F0719
:101100005B02012417431E0BA1E5264212D00D4BB2
:101110006546020001241E40E6E4210085E5170033
:10112000A8E53A00D4E4DB0864071C432700022149
:1011300000097AE5C0087707074365460021F008F3
:1011400073E5C046FFFF7FFFF0B557464E46DE46CB
:101150004546E0B51F000B031B0B16009A46CA0F4D
:101160004B000400914685B05B0D00D1CFE1CD4A24
:10117000934255D05146420FC9000A4380210904C9
:101180001143C2009046C84A8A4693469B440023B6
:10119000002502933C037B00FA0F0196240B5B0DA4
:1011A000009200D188E1BF4A934200D192E0BE4A4A
:1011B000944663449B440A2D42DCE400730F2343AE
:1011C0008024494624041C43F3000193009B002023
:1011D0005940CBB20393022D00DC94E00123AB40D5
:1011E0001D00A6232A00DB001A401D4200D029E280
:1011F00090239B001D4200D14DE20023802499469C
:101200002403A84B10004A461B052343D20713436F
:10121000190005B0F0BCBB46B246A946A046F0BDD9
:1012200052460243904600D0ACE19B4602239246D0
:1012300008250293AEE7009BA2469946019B98467B
:10124000029B022B00D1CAE1032B00D192E1012BBA
:1012500010D1002300240022D4E701227B083A4069
:1012600013435246D2071343984653465B089A46A7
:10127000039B99465B46581C8023DB005B44002B94
:1012800000DCB1E1424652070BD00F2241460A4032
:10129000042A06D04246111D4145924188465242D9
:1012A00092445246D20106D55246804B1A408023C2
:1012B0009246DB00C3187E4A934200DD8FE142462E
:1012C000D108524652070A4351465B054C02240B93
:1012D0005B0D97E7734B26439C46E344002E00D1F9
:1012E0006FE1032349461D43009B5940CBB2039352
:1012F0000A2D00DD33E10123AB401D0003230293DF
:1013000088222A4297D1424643461204120C160004
:1013100001981D0C030C0004000C4643B4461E004B
:101320006E430096160007005E436146B0466F4369
:101330000E0CB8444644B74205D98021490288467C
:10134000009F4744009761460904090C370C360496
:101350008C463100614401911100260C2404240CB8
:1013600061438C462100694389466146090C8846E1
:1013700072434A4442447543914503D9802149024E
:1013800088464544110C884661460904090C8C4680
:1013900012046244B91802915146090C8C46514618
:1013A0000F043F0C390041434544884661464143A0
:1013B0008A4641466046090C894658437B4353445C
:1013C0004B449A4503D98021490289464844190C67
:1013D000894641460904090C8846390061431B04CB
:1013E0004344884661464C4371438C4641467743AB
:1013F0000E0C3F19F6194844B44203D98021490222
:101400008946CC440299009F894631044F4489465D
:101410004146974292410C04240C4C44FF1852421E
:101420006419A1189F429B41884682465B429946B7
:1014300090459241AC42A441C244D14452426442DC
:10144000144399459B41824592415B42524213436A
:101450004A46360CA419E31863445B02D20D1A43C2
:10146000019992467A020A43501E8241FF0D1743AA
:101470004A4652021743B846DB0100D5EDE60D4B54
:10148000039A5B449146002B00DCACE03A00520723
:1014900000D110E70F2258463A40042A00D0F9E65E
:1014A00009E7C046FF07000001FCFFFFFFFFFFFE4A
:1014B000FE070000FF030000220032436FD0002C23
:1014C00000D1C2E0200000F0CBF9020003000B3A8B
:1014D0001D20821A30001900D04008398C400200CB
:1014E000224334008C405946CB1A86498B469B4494
:1014F0000A2D00DDA4E64946009B01945940CBB279
:10150000140000200393022D00DD67E6FBE653463E
:10151000034398463CD05346002B00D1A3E05046ED
:1015200000F09EF90B235B429C46020084441100AC
:101530005046083988401D23804660461B1A20000B
:10154000D8400300404603439A4623008B40984608
:101550006C4B00259B1A9B46002302931AE60F2D25
:1015600000D0C9E0802352461B031A4202D01C421D
:1015700000D192E08024534624031C4324034246B6
:10158000240B3EE69B46032380460C25029301E68E
:1015900000239A469B46013304250293FAE5012174
:1015A0000D430A2D00DD4BE6494600984140C9B283
:1015B0000391022D00DC96E000230024012001931A
:1015C0000CE649460223009A2B435140CAB20392CB
:1015D0000A2B00DD34E6002D57D1039B99460024E9
:1015E0000022494B0EE658460121C91A382900DD70
:1015F0002FE61F2956DD1F2254465242D31ADC40E3
:10160000202907D0414B42469C46534660448340C4
:101610001A43904642460721531E9A410B0022432B
:1016200013400024114209D00F231340042B5DD036
:10163000111D91429B410A005B425B07D2081A438D
:101640000023DFE5039B9946FAE5019800F008F9CD
:1016500002000300153220331C2A00DC38E7019A0F
:10166000083882403FE700F0FBF815239C4684448D
:101670000200634620321C2B00DC58E7002398460A
:101680002300083883409A4662E71D0000230024A7
:1016900002200193A2E5029032E61C43009B019ACE
:1016A0009946AEE51A4B5246C31840469A40C84088
:1016B0000243404698400300581E834154461A4353
:1016C000CC40530709D00F231340042B05D0131D22
:1016D000934292415242A4181A00230208D50123D2
:1016E000002400228EE5894600248BE50023A5E72F
:1016F00063076402240BA1E7009BA2469946019B65
:10170000984637E70DFCFFFFFF0700003E0400008E
:101710001E04000010B5041E10D000F0A1F80E4BFE
:101720001B1A5B055B0D0A280FDC0B222100121A25
:10173000D14015300A038440120B01E0002300223F
:101740001B0513432000190010BD22000B388240F6
:1017500012030024120BF3E71E040000F0B54B0047
:101760000F035B0D3A4C450F83B07F0A5E1C2F437D
:1017700000900191CA0FC50026420BD035495C1874
:10178000FE2C13DDFF200023C0051843D2071043B1
:1017900003B0F0BD3D43002B01D10020F4E7002D44
:1017A000F0D08023DB03FF203B43EDE7002C0CDD72
:1017B000009BFF009B01581E8341690F3B430B4375
:1017C000590727D1DB08E0B2DEE72100173131DB12
:1017D00080211E2009043943001B1F282DDD02260D
:1017E0007642341B0E00E6403400202804D01A480C
:1017F0008446634499400D432B00591E8B4123437B
:10180000590703D00F21194004290BD19B01002057
:101810005B0AB9E70F211940042904D19B015B0A37
:10182000E0B2B1E7002404335901F7D501340023B5
:10183000E0B2A9E700200023A6E7084C1C192B0002
:10184000A540C340A140681E854129430B43D7E70B
:10185000FE07000080FCFFFFA2FCFFFF82FCFFFFF1
:101860001C2101231B04984201D3000C10391B0AD0
:10187000984201D3000A08391B09984201D3000994
:10188000043902A2105C40187047C04604030202EB
:1018900001010101000000000000000010B5002956
:1018A00003D1FFF7DDFF203002E00800FFF7D8FF8B
:1018B00010BDC046F0B54F464646D646C0B50600F8
:1018C0000F001000190082B0002F5DDB34003D00D6
:1018D000002B0BDB16001F00AB4217D900200021A4
:1018E00002B0E0BCBA46B146A846F0BD0027464269
:1018F0008F41AF42F2D800D1A0E001235B4299466C
:1019000009E0002746428F41AF42E7D8AF4200D1FD
:1019100090E00023994639003000FFF7BFFF804672
:1019200029002000FFF7BAFF43461B1A9846203BC8
:1019300075D4310099409A460B00310040468140F1
:101940000A00AB422ED82BD05146A41A9D41002943
:1019500000DA90E00021002001260090019151461C
:101960008E400196414601268E4041460096002950
:101970001FD1009801994B46002BB1D003000C00F9
:1019800000215842A141ABE700257442BD41002B24
:10199000B7DB16001F00AB42A0D8AF42ADD14DE07F
:1019A000A142D1D900210020009001914146002997
:1019B000DFD0D90756085F080E4343460EE0AF421A
:1019C00001D1A6420CD8A41BBD41012124196D41AF
:1019D0000022013B64185541002B06D0AF42EED9DE
:1019E000013B24196D41002BF8D1009A019B51460F
:1019F00012196B41002925DB2E002C00CE404146F8
:101A0000CC40514600292DDB34008C402100444657
:101A1000A6403000121A8B4100920193A9E742467A
:101A200038009A462023310090409B1AD940030089
:101A30000B4382E7A64200D950E76AE7A64200D8E6
:101A40005BE74BE740462021091A28008840260022
:101A500001004046C6402C000E434146CC40514652
:101A60000029D1DA4046202135008440091ACD40B2
:101A700021002943CBE7414620260127761A002082
:101A80000021F7400090019101976BE7F8B5124FE4
:101A90007E68013600F0F2FD0500BC6800F0EEFD46
:101AA000BB68854200D01C00371BFA22920000233D
:101AB0000021FEF733FC04000D00FA2292000023FF
:101AC00038000021FEF72AFC32000023FEF706FC56
:101AD00000196941F8BDC04610E000E010B588B0BB
:101AE0001422002103A800F032FF174B5A6980210D
:101AF000C9030A435A615A690A400092009A5A6916
:101B00008021C9020A435A615A690A400192019A26
:101B10005A69802189020A435A615B690B4002932A
:101B2000029B0A4C0022FF21200000F083FEFF23CD
:101B30000393FE3B049300230593069303A920001F
:101B400000F0B4FD08B010BD0010024000040048D1
:101B5000F0B5DE4657464E464546E0B58FB0070025
:101B60000A920023994600230024089309944B46C7
:101B70000C930D9170E000998B1A9946039A3B00E3
:101B800002983100FEF7CAFB3B4A0023FEF782FBB6
:101B9000404404004846584401350A9B9D4227DAD8
:101BA0000290C617020033003100FEF7B7FB334A3C
:101BB0000023FEF76FFB009001910394E7172200CA
:101BC0003B0020003900FEF7A9FB2C4A0023FEF75A
:101BD00061FB02000B0000980199801859410490A4
:101BE0000591002904DCC6D1254904988842C2D950
:101BF0000B9E57460695EB170793089B099C069981
:101C0000079A5B185441089309940136BE4220DAC2
:101C1000F1171C4A00233000FEF780FBFB173A0047
:101C2000FEF738FB184B9B4683440C98C117174AA4
:101C30000023FEF773FB0D9AD317FEF72BFB144B13
:101C40009A468244002500240020D0460B96BA46CE
:101C5000A3E70C9B01330C930C9B0D9A934201DA82
:101C60000026D3E7089809990FB0F0BCBB46B246EE
:101C7000A946A046F0BDC04620A1070040420F0083
:101C800000093D00E067350060DAD9FF80841E005E
:101C9000C0BDF0FFF0B5DE4657464E464546E0B5BE
:101CA0008BB000262AE000239946374B1868374945
:101CB000FEF72AFA444302AB42461A805F8053463D
:101CC0000393642302AA1381009B0693019B07934D
:101CD0004B46089309942E487301C018202202A98C
:101CE00000F062FE2B4B52461A602B4B4A461A609C
:101CF0002A4B1C60322000F0C7FC0136042E3CDC6D
:101D0000274BB200D15A88469B185F880B007B4353
:101D10009946244B1980244B1F801021234800F042
:101D20008FFDFFF7B3FE04000D006422390040462A
:101D3000FFF70EFF00900191FFF7A8FE001BA941DD
:101D400004000D00FA2292000023FEF7C7FA824633
:101D500020002900FEF710FB1549FEF71BFC834607
:101D60000021FEF783FA00289DD04846FEF7E0FDEB
:101D70005946FEF70FFC814697E70BB0F0BCBB4617
:101D8000B246A946A046F0BD0800002040420F0020
:101D900040000020380000203000002034000020E7
:101DA000502A00083E0000203C00002000040048AB
:101DB0000024744972B6FEE700B591B030220021CC
:101DC00004A800F0C4FD10220021684600F0BFFD09
:101DD00002230493012207920F3208920C93A0234E
:101DE0009B030E9304A800F0F3F800280ED10723FC
:101DF0000093053B0193002302930393012168465E
:101E000000F05EFB002803D111B000BDFFF7D2FF48
:101E1000FFF7D0FFF0B5DE4657464E464546E0B5E3
:101E200083B000F00FFCFFF7C7FFFFF757FE6DE030
:101E30004B4BB200D15A4B48834601809B185B88BC
:101E4000494A9246138000F019FC484F38605B46BF
:101E5000188880B25346198889B2454B98461A882B
:101E600092B2FFF775FE04000D0000F007FC414937
:101E700008605B461B889BB29C463F4B01937000F9
:101E80008019C0004A4612014B46D21AD20082186D
:101E9000019B6046D0525046008880B29B18588003
:101EA0004246128892B21A810A683968521A5A60F8
:101EB0001C615D61314A1368013313600136042EE1
:101EC000B6DD01239C46E1444B46042B07DC2C4B3A
:101ED0004A465200D25A264B1A800026EFE7294C78
:101EE00001220821200000F0A5FCFA20C00000F02B
:101EF000CBFB00220421200000F09CFC00220821E2
:101F0000200000F097FC204B01221A701E4B1B781A
:101F1000002B07D0012204211A4800F08BFC00237B
:101F20009946D1E7194B1B78002BEFD1154C0122B4
:101F30000121200000F07EFCFFF7ACFE012202210F
:101F4000200000F077FCFA20C00000F09DFB00228A
:101F50000321200000F06EFC0C4B01221A70D5E723
:101F6000502A0008EC000020EA000020F4000020C5
:101F7000E8000020F0000020F8000020E40000202D
:101F8000642A000800040048E00000202C00002023
:101F9000FEE7FEE77047704710B500F063FB10BD29
:101FA00082B00A4B996901221143996199690A40EB
:101FB0000092009ADA69802149050A43DA61DB69F7
:101FC0000B400193019B02B07047C04600100240D5
:101FD00070B582B0041E00D12EE20368DB0726D55F
:101FE000AE4B5A680C231340042B18D0AB4B5A68E5
:101FF0000C231340082B0ED06368012B3CD0002B20
:1020000051D1A64B1A68A6490A401A601A68A54918
:102010000A401A6036E0A14B5B68DB03ECD59F4BAE
:102020001B689B0303D56368002B00D107E223687C
:102030009B0772D5994B5B680C221A425DD0974B77
:102040005A680C231340082B53D0E368002B00D1AF
:1020500085E0924A136801210B43136000F00EFBE8
:1020600005008E4B1B689B0770D400F007FB401BDC
:102070000228F6D90320E0E1884A116880235B0238
:102080000B4313606368002B25D000F0F7FA0500BE
:10209000824B1B689B03CAD400F0F0FA401B6428F3
:1020A000F6D90320C9E1052B09D07C4B1A687C497D
:1020B0000A401A601A687B490A401A60E2E7774BC7
:1020C00019688022D2020A431A60196880225202DB
:1020D0000A431A60D6E700F0D1FA05006F4B1B687F
:1020E0009B03A4D500F0CAFA401B6428F6D903204C
:1020F000A3E16A4B5B68DB03A7D4684B1B689B07B3
:1021000003D5E368012B00D09BE164490B68F822FA
:1021100093432269D20013430B6023681B0744D505
:10212000E369002B2ED05D4A536A01210B435362B1
:1021300000F0A4FA0500594B5B6A9B0735D400F008
:102140009DFA401B0228F6D9032076E153490B681B
:10215000F82293432269D20013430B60DDE74F4A14
:10216000136801218B43136000F088FA05004B4B84
:102170001B689B07D1D500F081FA401B0228F6D9D5
:1021800003205AE1454A536A01218B43536200F010
:1021900075FA0500414B5B6A9B0706D500F06EFAA5
:1021A000401B0228F6D9032047E123685B0700D4CF
:1021B00080E03A4BDB69DB001DD4384BDA698021C3
:1021C00049050A43DA61DB690B400193019B012554
:1021D000354B1B68DB0510D5A368012B21D0002BE4
:1021E00036D12E4B1A6A01218A431A621A6A0331C8
:1021F0008A431A621AE00025EAE72B4A1168802315
:102200005B000B43136000F039FA0600264B1B6895
:10221000DB05E1D400F032FA801B6428F6D90320F4
:102220000BE11E4A136A01210B431362A368002BC2
:1022300024D000F023FA0600184B1B6A9B0737D402
:1022400000F01CFA801B194B9842F5D90320F4E0EA
:10225000052B09D0114B1A6A01218A431A621A6AA6
:1022600003318A431A62E1E70C4B1A6A04210A43DC
:102270001A621A6A03390A431A62D7E700F0FEF9B4
:102280000600064B1B6A9B0712D500F0F7F9801B6E
:10229000064B9842F5D90320CFE0C046001002401B
:1022A000FFFFFEFFFFFFFBFF0070004088130000F0
:1022B000012D33D02368DB0610D56369012B33D0A1
:1022C000053351D1654A536B04218B435363536BE0
:1022D000F4318B43A169C9000B435363236A002B7C
:1022E00000D1B0E05D4A51680C220A40082A00D1B2
:1022F0008AE0022B4FD0594A136859490B401360AA
:1023000000F0BCF90400554B1B689B017AD500F026
:10231000B5F9001B0228F6D903208EE04F4AD36995
:1023200050490B40D361C5E74C4B5A6B04210A431B
:102330005A635A6B03390A435A6300F09FF9050048
:10234000464B5B6B9B0706D400F098F9401B0228B4
:10235000F6D9032071E041494B6BF8229343A269FF
:10236000D20013434B63B9E73C4B5A6B04210A4339
:102370005A635A6B03398A435A6300F07FF90500A8
:10238000364B5B6B9B07A9D500F078F9401B022800
:10239000F6D9032051E0314A136831490B401360EC
:1023A00000F06CF905002D4B1B689B0106D500F071
:1023B00065F9401B0228F6D903203EE0274BDA6A74
:1023C0000F218A43E16A0A43DA625A6826490A40C1
:1023D000A16A606A01430A435A6019688022520464
:1023E0000A431A6000F04AF904001C4B1B689B0169
:1023F00006D400F043F9001B0228F6D903201CE0A4
:1024000000201AE0002018E0012B1ED0134B5A6860
:10241000D86A80235B021340616A8B4217D10F2375
:102420000340E16A8B4214D1F0239B031A40A36A54
:102430009A4210D1002000E0012002B070BD0120BE
:10244000FBE70120F9E70020F7E70120F5E701208D
:10245000F3E70120F1E70120EFE7C046001002405A
:10246000FFFFFFFEFFFFFFEFFFFFC2FF10B5104BA6
:102470005A680C231340082B01D00E4810BD910C54
:10248000073319400C48445C0949C96A0B400B49A1
:10249000C95CD20304D50748FDF736FE6043EDE77B
:1024A0006201121B93019B1ADB001B191802E5E75E
:1024B0000010024000127A00802A0008702A0008EA
:1024C00070B504000D00002800D17EE0434B1A686F
:1024D000012313408B420AD240490B6801229343E7
:1024E0002B430B600B681A40AA4200D06FE02368B0
:1024F0009A070ED55B0705D5394A5168E023DB0002
:102500000B435360364A5368F0218B43A1680B4359
:1025100053602368DB072DD56368012B1ED0022B87
:1025200022D02F4A1268920753D52D494A680320BA
:10253000824313434B6000F0A1F80600284B5B6810
:102540000C221A4063689B009A4213D000F096F860
:10255000801B244B9842F1D9032035E0204A1268B1
:102560009203E2D401202FE01D4A12689201DCD4CC
:10257000012029E0194B1A6801231340AB4209D905
:1025800016490B68012293432B430B600B681A40DA
:10259000AA4220D123685B0706D5114A5368124925
:1025A0000B40E1680B435360FFF760FF0C4B5A6828
:1025B00012090F2313400D4AD35CD8400C4B18600E
:1025C000032000F017F8002070BD0120FCE7012077
:1025D000FAE70120F8E70120F6E7C04600200240B4
:1025E0000010024088130000FFF8FFFF902A000847
:1025F0000800002010B504000F4B1978FA20800065
:10260000FDF782FD01000D4B1868FDF77DFD00F020
:102610006FF900280DD1032C01D901200AE0013007
:1026200000222100404200F05FF9054B1C600020B1
:1026300000E0012010BDC04600000020080000207E
:102640000400002010B5064A136810210B431360E4
:102650000320FFF7CFFFFFF7A3FC002010BDC0460B
:1026600000200240034A1168034B1B785B1813607B
:102670007047C0465003002000000020014B18683E
:102680007047C0465003002070B50400FFF7F6FF06
:102690000500631C02D0044B1B78E418FFF7EEFF23
:1026A000401BA042FAD370BD00000020F0B583B0FB
:1026B000002356E086685F000324BC40A643CC6834
:1026C000BC4034438460446894434E683609012218
:1026D00032409A402243426053E0DE080836B6009A
:1026E000375805321A4092000F249440A7430C69D2
:1026F000944022003A43325056E0032600E0002680
:10270000A64034003C4302329200444E9451444A65
:102710009768EA433E00AE434C68E40201D53E00B0
:102720002E433F4CA660E7683E0016404C68A4026A
:1027300001D53E002E433A4CE66067683E001640E5
:102740004C68A40301D53E002E43354C66602668D4
:1027500032404C68E40301D52A003243304C2260F9
:1027600001330C682200DA4056D001229A4025003D
:1027700015401442F4D04E6803243440013C012C2F
:1027800098D94C6803222240032A08D0C4685E000E
:102790000322B24094438A68B2402243C2604C682C
:1027A00003222240022A98D004685E000322170008
:1027B000B740BC434F683A40B240224302604C6885
:1027C000C02292021442CBD0164CA66901221643B5
:1027D000A661A46922400192019A9A08941CA4005F
:1027E0000E4EA75903241C40A4000F26A640B74351
:1027F0009026F605B04282D00B4EB04208D00B4E68
:10280000B04207D00A4EB04200D176E7052677E7FE
:10281000012675E7022673E703B0F0BD0000014012
:102820000004014000100240000400480008004875
:10283000000C0048002A01D0816170478162FCE7EA
:10284000426913000B401B0491430B4383617047A3
:1028500070B5002811DB8308134DC0339B005C5911
:1028600003221040C000FC3216008640B4438901A8
:102870000A40824022435A5170BD0F230340083B57
:102880009B0806339B00094A944663445C68032214
:102890001040C000FC3215008540AC4389010A405D
:1028A000824022435A60E7E700E100E000ED00E0EB
:1028B000013880235B0498420FD2094A50600948CE
:1028C000036A1B021B0AC02109060B430362002393
:1028D000936007331360002070470120FCE7C04677
:1028E00010E000E000ED00E010B5FFF7B1FF10BD13
:1028F00010B5FFF7DDFF10BD704700000D4885469D
:10290000FFF7FAFF0C480D490D4A002302E0D458A6
:10291000C4500433C4188C42F9D30A4A0A4C002329
:1029200001E013600432A242FBD300F019F8FFF774
:1029300071FAFEE700200020000000200C000020BB
:10294000B02A00081000002054030020FEE7030016
:102950008218934200D1704719700133F9E70000E3
:1029600070B500260C4C0D4D641BA410A64209D175
:10297000002600F023F80A4C0A4D641BA410A6425E
:1029800005D170BDB300EB5898470136EEE7B300B0
:10299000EB5898470136F2E7A82A0008A82A000851
:1029A000AC2A0008A82A0008002310B59A4200D1DA
:1029B00010BDCC5CC4540133F8E70000F8B5C04644
:1029C000F8BC08BC9E467047F8B5C046F8BC08BCC9
:0429D0009E46704768
:1029D4002A0700085606000840060008BC0600083E
:1029E40040060008F006000840060008BC0600087F
:1029F4005606000856060008F0060008BC06000843
:102A04002C0600082C0600082C060008FA0600080C
:102A140056060008560600084006000896070008F7
:102A240040060008F0060008400600089607000863
:102A34005606000856060008F00600089607000827
:102A44002C0600082C0600082C06000880008000D4
:102A5400A000A000C000C000E000E00000010001F0
:102A64006400FA00F401EE02E8030000010203042A
:102A740005060708090A0B0C0D0E0F1002030405C6
:102A8400060708090A0B0C0D0E0F101000000000B9
:0C2A94000000000001020304060708090E
:082AA00020D9FF7F01000000B6
:042AA800E900000839
:042AAC00C10000085D
:0C2AB000010000000400000000127A0089
:04000005080028FDCA
:00000001FF
